:02000000852851
:100008007E1480312000911E0A280B287D282300A9
:100018001D08F0007008FA001908F0007008FA00CE
:100028007A08F0007B082A3E860087017008810064
:100038000130F0007008FB070130F0007008200064
:10004800E2074F08031D29282A2835287A0A031DA4
:100058002E282F283228CF01CF0A7628FB01E2016B
:1000680076284F03031D39283A2849287A0A031DA0
:100078003E283F2844280230F0007008CF00762838
:10008800FB01FB0AE201E20A762802304F06031D53
:100098004E284F2876286008031D532854287628B0
:1000A80005306206031D59285A285E287A08F00090
:1000B8007008EE006E08053EF000003003180130AD
:1000C800F1007108803A803C031D6C2870086202B8
:1000D800031C6F28702876282000E001E00A0C161F
:1000E800FB01CF0123009D1C7A287B287D281D1247
:1000F8001D1623001D16210091160B178B177E1055
:1001080009008628FA01FB012030840000308500B0
:1001180044308331322380317E102000992A200018
:1001280060080319982899286F298131B5218031F1
:10013800F80078082000E9000C12EB01EA01013010
:10014800F8007808EA070A306A02031CAC28AD28D0
:10015800A3280130F8007808EB070A306B02031C6B
:10016800B628B728A228FE3050060319BC28BD2897
:1001780059295003031DC128C2286F295929500342
:10018800031DC728C8286F296908031DCC28CD2856
:10019800D2284130F8007808EC00D6284E30F80014
:1001A8007808EC005008F8007808F4006E08F900A8
:1001B8007908F5006C088231362280316F295003A6
:1001C800031DE728E8286F296908031DEC28ED2896
:1001D800F2284130F8007808EC00F6284E30F80094
:1001E8007808EC005008F8007808F4006E08F90068
:1001F8007908F5006C088231362280316F29500366
:10020800031D072908296F296908031D0C290D29D1
:1002180028290B3021009D0002301D05F8007803C5
:1002280003191729182910291C08F8007808200034
:10023800AF0021001B08F80078082000B00041300A
:10024800F8007808EC002C294E30F8007808EC000B
:100258005008F8007808F4006E08F9007908F500ED
:100268006C088231362280316F295003031D3D29E5
:100278003E296F296908031D42294329482941302D
:10028800F8007808EC004C294E30F8007808EC00AB
:100298005008F8007808F4006E08F9007908F500AD
:1002A8006C088231362280316F295208F800F90132
:1002B8007908003A031961296F297808003A031967
:1002C800C328013A0319E328033A03190329013A19
:1002D800031939296F292000EB01EA010130F800E0
:1002E8007808EA070A306A02031C7B297C297229EC
:1002F8000130F8007808EB070A306B02031C8529E7
:100308008629712923009E1C8A298B29B42920005B
:100318006108031D9029912993298C1294298C1620
:100328006108031998299929B4296308203E860091
:100338008701010823009A000130F800780820009E
:10034800E3070B306302031CAA29AB29AC29E3019C
:100358000130E1026108031DB229B329B429E30180
:100368000800FB018231F8228131F4007408F7009B
:10037800770A0319C029C129CD29C8298231F82251
:100388008131F4007408F700770A031DCC29CD29C0
:10039800C2298231F8228131F4007408F700770A03
:1003A8000319D729D829DE29FB012000E201E00141
:1003B8000130352A8231F8228131F4007408F700BF
:1003C800053077020318E929EA29F0297708F400AB
:1003D80074082000D200F629FB012000E201E001A8
:1003E8000330352A8231F8228131F4007408200064
:1003F800D0008231F8228131F4007408FA00F60145
:100408001D2A76082A3E860087010108F40076082E
:10041800203E86008701740881007708F40076087A
:10042800343E86008701740881000130F4007408A6
:10043800F60720006E08043EF4000030031801306F
:10044800F5007508803A803C031D2C2A7408760252
:10045800031C2F2A302A052AFB012000E201E001B3
:10046800003008002000E400E6018C160C16FF306E
:10047800833110238231FF308331102382312000F1
:10048800640883311023823120006408F60076085E
:10049800E60774088331102382317408F600760861
:1004A8002000E60775088331102382317508F600AD
:1004B80076082000E607E801762A68082F3E8600BD
:1004C80087010108F6007608E500650883311023E6
:1004D800823120006508F6007608E6070130F6004C
:1004E8007608E80775086802031C7B2A7C2A612ABB
:1004F80066088331102382312000E301E801E70117
:100508000130F6007608E7070A306702031C8D2AD7
:100518008E2A842A0130F6007608E8070A30680235
:10052800031C972A982A832A080080302100950006
:10053800FF30990022009D01043023008C00250023
:100548009301063021008C0020008C0195018B015D
:10055800043023008C00093021009D009D10833158
:10056800232382312000E001210091160B178B17FD
:1005780020008C168C120C120330ED006D08EE0072
:10058800CF018031932082312100A001A1012100F7
:10059800A201A30101302100A2070030A33D2308D6
:1005A800803A2000ED0080306D02031DDE2A0A30FB
:1005B80021002202031CE12AE22ACE2A013021006E
:1005C800A0070030A13D2108803A2000ED008030CE
:1005D8006D02031DF22A0A3021002002031CF52AAD
:1005E800F62ACB2AC52A8528200062080319FD2A85
:1005F800FE2A0E2B7B082A3E860087010108F2009E
:100608007208F3000130F2007208FB070130E202C1
:1006180073080F2BFF300800F3007308F200200066
:100628006308203E86008701720881000130F200CD
:100638007208E3070130F2007208E107080024306D
:1006480023009E0090309D0067309B009C01A030E5
:100658009B0001309C0008309F0008006400800166
:080668000131890B332B003432
:020000040001F9
:04000E00A40FFF1C20
:00000001FF
